{
  "_format": "hh-sol-artifact-1",
  "contractName": "Receiver",
  "sourceName": "contracts/Receiver.sol",
  "abi": [
    {
      "inputs": [
        {
          "internalType": "address[]",
          "name": "tContractAddress",
          "type": "address[]"
        },
        {
          "internalType": "address[]",
          "name": "owner",
          "type": "address[]"
        },
        {
          "internalType": "uint256[]",
          "name": "amount",
          "type": "uint256[]"
        },
        {
          "internalType": "uint256[]",
          "name": "deadline",
          "type": "uint256[]"
        },
        {
          "internalType": "uint8[]",
          "name": "v",
          "type": "uint8[]"
        },
        {
          "internalType": "bytes32[]",
          "name": "r",
          "type": "bytes32[]"
        },
        {
          "internalType": "bytes32[]",
          "name": "s",
          "type": "bytes32[]"
        },
        {
          "internalType": "address[]",
          "name": "to",
          "type": "address[]"
        }
      ],
      "name": "callPermit",
      "outputs": [],
      "stateMutability": "nonpayable",
      "type": "function"
    },
    {
      "inputs": [
        {
          "internalType": "address",
          "name": "tContractAddress",
          "type": "address"
        },
        {
          "internalType": "address",
          "name": "owner",
          "type": "address"
        }
      ],
      "name": "getNonce",
      "outputs": [
        {
          "internalType": "uint256",
          "name": "",
          "type": "uint256"
        }
      ],
      "stateMutability": "view",
      "type": "function"
    }
  ],
  "bytecode": "0x608060405234801561001057600080fd5b50610f88806100206000396000f3fe608060405234801561001057600080fd5b50600436106100365760003560e01c80634051c11e1461003b578063d828435d14610057575b600080fd5b610055600480360381019061005091906109cf565b610087565b005b610071600480360381019061006c9190610993565b610621565b60405161007e9190610c94565b60405180910390f35b60005b8851811015610616576000808a83815181106100cf577f4e487b7100000000000000000000000000000000000000000000000000000000600052603260045260246000fd5b602002602001015173ffffffffffffffffffffffffffffffffffffffff168a8481518110610126577f4e487b7100000000000000000000000000000000000000000000000000000000600052603260045260246000fd5b6020026020010151308b8681518110610168577f4e487b7100000000000000000000000000000000000000000000000000000000600052603260045260246000fd5b60200260200101518b87815181106101a9577f4e487b7100000000000000000000000000000000000000000000000000000000600052603260045260246000fd5b60200260200101518b88815181106101ea577f4e487b7100000000000000000000000000000000000000000000000000000000600052603260045260246000fd5b60200260200101518b898151811061022b577f4e487b7100000000000000000000000000000000000000000000000000000000600052603260045260246000fd5b60200260200101518b8a8151811061026c577f4e487b7100000000000000000000000000000000000000000000000000000000600052603260045260246000fd5b602002602001015160405160240161028a9796959493929190610c25565b6040516020818303038152906040527f19ac1342000000000000000000000000000000000000000000000000000000007bffffffffffffffffffffffffffffffffffffffffffffffffffffffff19166020820180517bffffffffffffffffffffffffffffffffffffffffffffffffffffffff83818316178352505050506040516103149190610bd7565b6000604051808303816000865af19150503d8060008114610351576040519150601f19603f3d011682016040523d82523d6000602084013e610356565b606091505b509150915081610367575050610603565b61046a6000808d86815181106103a6577f4e487b7100000000000000000000000000000000000000000000000000000000600052603260045260246000fd5b602002602001015173ffffffffffffffffffffffffffffffffffffffff1673ffffffffffffffffffffffffffffffffffffffff16815260200190815260200160002060008c8681518110610423577f4e487b7100000000000000000000000000000000000000000000000000000000600052603260045260246000fd5b602002602001015173ffffffffffffffffffffffffffffffffffffffff1673ffffffffffffffffffffffffffffffffffffffff1681526020019081526020016000206106ae565b60008b84815181106104a5577f4e487b7100000000000000000000000000000000000000000000000000000000600052603260045260246000fd5b602002602001015190508073ffffffffffffffffffffffffffffffffffffffff166323b872dd8c8681518110610504577f4e487b7100000000000000000000000000000000000000000000000000000000600052603260045260246000fd5b6020026020010151878781518110610545577f4e487b7100000000000000000000000000000000000000000000000000000000600052603260045260246000fd5b60200260200101518d8881518110610586577f4e487b7100000000000000000000000000000000000000000000000000000000600052603260045260246000fd5b60200260200101516040518463ffffffff1660e01b81526004016105ac93929190610bee565b602060405180830381600087803b1580156105c657600080fd5b505af11580156105da573d6000803e3d6000fd5b505050506040513d601f19601f820116820180604052508101906105fe9190610b41565b505050505b808061060e90610e38565b91505061008a565b505050505050505050565b60006106a66000808573ffffffffffffffffffffffffffffffffffffffff1673ffffffffffffffffffffffffffffffffffffffff16815260200190815260200160002060008473ffffffffffffffffffffffffffffffffffffffff1673ffffffffffffffffffffffffffffffffffffffff1681526020019081526020016000206106c4565b905092915050565b6001816000016000828254019250508190555050565b600081600001549050919050565b60006106e56106e084610ce0565b610caf565b9050808382526020820190508285602086028201111561070457600080fd5b60005b85811015610734578161071a8882610882565b845260208401935060208301925050600181019050610707565b5050509392505050565b600061075161074c84610d0c565b610caf565b9050808382526020820190508285602086028201111561077057600080fd5b60005b858110156107a057816107868882610954565b845260208401935060208301925050600181019050610773565b5050509392505050565b60006107bd6107b884610d38565b610caf565b905080838252602082019050828560208602820111156107dc57600080fd5b60005b8581101561080c57816107f28882610969565b8452602084019350602083019250506001810190506107df565b5050509392505050565b600061082961082484610d64565b610caf565b9050808382526020820190508285602086028201111561084857600080fd5b60005b85811015610878578161085e888261097e565b84526020840193506020830192505060018101905061084b565b5050509392505050565b60008135905061089181610edf565b92915050565b600082601f8301126108a857600080fd5b81356108b88482602086016106d2565b91505092915050565b600082601f8301126108d257600080fd5b81356108e284826020860161073e565b91505092915050565b600082601f8301126108fc57600080fd5b813561090c8482602086016107aa565b91505092915050565b600082601f83011261092657600080fd5b8135610936848260208601610816565b91505092915050565b60008151905061094e81610ef6565b92915050565b60008135905061096381610f0d565b92915050565b60008135905061097881610f24565b92915050565b60008135905061098d81610f3b565b92915050565b600080604083850312156109a657600080fd5b60006109b485828601610882565b92505060206109c585828601610882565b9150509250929050565b600080600080600080600080610100898b0312156109ec57600080fd5b600089013567ffffffffffffffff811115610a0657600080fd5b610a128b828c01610897565b985050602089013567ffffffffffffffff811115610a2f57600080fd5b610a3b8b828c01610897565b975050604089013567ffffffffffffffff811115610a5857600080fd5b610a648b828c016108eb565b965050606089013567ffffffffffffffff811115610a8157600080fd5b610a8d8b828c016108eb565b955050608089013567ffffffffffffffff811115610aaa57600080fd5b610ab68b828c01610915565b94505060a089013567ffffffffffffffff811115610ad357600080fd5b610adf8b828c016108c1565b93505060c089013567ffffffffffffffff811115610afc57600080fd5b610b088b828c016108c1565b92505060e089013567ffffffffffffffff811115610b2557600080fd5b610b318b828c01610897565b9150509295985092959890939650565b600060208284031215610b5357600080fd5b6000610b618482850161093f565b91505092915050565b610b7381610da6565b82525050565b610b8281610dc4565b82525050565b6000610b9382610d90565b610b9d8185610d9b565b9350610bad818560208601610e05565b80840191505092915050565b610bc281610dee565b82525050565b610bd181610df8565b82525050565b6000610be38284610b88565b915081905092915050565b6000606082019050610c036000830186610b6a565b610c106020830185610b6a565b610c1d6040830184610bb9565b949350505050565b600060e082019050610c3a600083018a610b6a565b610c476020830189610b6a565b610c546040830188610bb9565b610c616060830187610bb9565b610c6e6080830186610bc8565b610c7b60a0830185610b79565b610c8860c0830184610b79565b98975050505050505050565b6000602082019050610ca96000830184610bb9565b92915050565b6000604051905081810181811067ffffffffffffffff82111715610cd657610cd5610eb0565b5b8060405250919050565b600067ffffffffffffffff821115610cfb57610cfa610eb0565b5b602082029050602081019050919050565b600067ffffffffffffffff821115610d2757610d26610eb0565b5b602082029050602081019050919050565b600067ffffffffffffffff821115610d5357610d52610eb0565b5b602082029050602081019050919050565b600067ffffffffffffffff821115610d7f57610d7e610eb0565b5b602082029050602081019050919050565b600081519050919050565b600081905092915050565b6000610db182610dce565b9050919050565b60008115159050919050565b6000819050919050565b600073ffffffffffffffffffffffffffffffffffffffff82169050919050565b6000819050919050565b600060ff82169050919050565b60005b83811015610e23578082015181840152602081019050610e08565b83811115610e32576000848401525b50505050565b6000610e4382610dee565b91507fffffffffffffffffffffffffffffffffffffffffffffffffffffffffffffffff821415610e7657610e75610e81565b5b600182019050919050565b7f4e487b7100000000000000000000000000000000000000000000000000000000600052601160045260246000fd5b7f4e487b7100000000000000000000000000000000000000000000000000000000600052604160045260246000fd5b610ee881610da6565b8114610ef357600080fd5b50565b610eff81610db8565b8114610f0a57600080fd5b50565b610f1681610dc4565b8114610f2157600080fd5b50565b610f2d81610dee565b8114610f3857600080fd5b50565b610f4481610df8565b8114610f4f57600080fd5b5056fea2646970667358221220106a0281777d2b55aef014037c3864bcd565512c378d4d401494c5fa61d2e92264736f6c63430008000033",
  "linkReferences": {},
  "deployedLinkReferences": {}
}